{
  "_format": "hh-sol-artifact-1",
  "contractName": "CryptoPillsAnthem",
  "sourceName": "contracts/CryptoPillsAnthem.sol",
  "abi": [
    {
      "inputs": [],
      "stateMutability": "nonpayable",
      "type": "constructor"
    },
    {
      "anonymous": false,
      "inputs": [
        {
          "indexed": true,
          "internalType": "address",
          "name": "account",
          "type": "address"
        },
        {
          "indexed": true,
          "internalType": "address",
          "name": "operator",
          "type": "address"
        },
        {
          "indexed": false,
          "internalType": "bool",
          "name": "approved",
          "type": "bool"
        }
      ],
      "name": "ApprovalForAll",
      "type": "event"
    },
    {
      "inputs": [],
      "name": "totalSupply",
      "outputs": [
        {
          "internalType": "uint256",
          "name": "",
          "type": "uint256"
        }
      ],
      "stateMutability": "view",
      "type": "function"
    },
    {
      "anonymous": false,
      "inputs": [
        {
          "indexed": true,
          "internalType": "address",
          "name": "previousOwner",
          "type": "address"
        },
        {
          "indexed": true,
          "internalType": "address",
          "name": "newOwner",
          "type": "address"
        }
      ],
      "name": "OwnershipTransferred",
      "type": "event"
    },
    {
      "anonymous": false,
      "inputs": [
        {
          "indexed": true,
          "internalType": "address",
          "name": "operator",
          "type": "address"
        },
        {
          "indexed": true,
          "internalType": "address",
          "name": "from",
          "type": "address"
        },
        {
          "indexed": true,
          "internalType": "address",
          "name": "to",
          "type": "address"
        },
        {
          "indexed": false,
          "internalType": "uint256[]",
          "name": "ids",
          "type": "uint256[]"
        },
        {
          "indexed": false,
          "internalType": "uint256[]",
          "name": "values",
          "type": "uint256[]"
        }
      ],
      "name": "TransferBatch",
      "type": "event"
    },
    {
      "anonymous": false,
      "inputs": [
        {
          "indexed": true,
          "internalType": "address",
          "name": "operator",
          "type": "address"
        },
        {
          "indexed": true,
          "internalType": "address",
          "name": "from",
          "type": "address"
        },
        {
          "indexed": true,
          "internalType": "address",
          "name": "to",
          "type": "address"
        },
        {
          "indexed": false,
          "internalType": "uint256",
          "name": "id",
          "type": "uint256"
        },
        {
          "indexed": false,
          "internalType": "uint256",
          "name": "value",
          "type": "uint256"
        }
      ],
      "name": "TransferSingle",
      "type": "event"
    },
    {
      "anonymous": false,
      "inputs": [
        {
          "indexed": false,
          "internalType": "string",
          "name": "value",
          "type": "string"
        },
        {
          "indexed": true,
          "internalType": "uint256",
          "name": "id",
          "type": "uint256"
        }
      ],
      "name": "URI",
      "type": "event"
    },
    {
      "inputs": [],
      "name": "CryptoPills",
      "outputs": [
        {
          "internalType": "contract ICryptoPills",
          "name": "",
          "type": "address"
        }
      ],
      "stateMutability": "view",
      "type": "function"
    },
    {
      "inputs": [
        {
          "internalType": "address",
          "name": "account",
          "type": "address"
        },
        {
          "internalType": "uint256",
          "name": "id",
          "type": "uint256"
        }
      ],
      "name": "balanceOf",
      "outputs": [
        {
          "internalType": "uint256",
          "name": "",
          "type": "uint256"
        }
      ],
      "stateMutability": "view",
      "type": "function"
    },
    {
      "inputs": [
        {
          "internalType": "address[]",
          "name": "accounts",
          "type": "address[]"
        },
        {
          "internalType": "uint256[]",
          "name": "ids",
          "type": "uint256[]"
        }
      ],
      "name": "balanceOfBatch",
      "outputs": [
        {
          "internalType": "uint256[]",
          "name": "",
          "type": "uint256[]"
        }
      ],
      "stateMutability": "view",
      "type": "function"
    },
    {
      "inputs": [
        {
          "internalType": "address",
          "name": "account",
          "type": "address"
        },
        {
          "internalType": "address",
          "name": "operator",
          "type": "address"
        }
      ],
      "name": "isApprovedForAll",
      "outputs": [
        {
          "internalType": "bool",
          "name": "",
          "type": "bool"
        }
      ],
      "stateMutability": "view",
      "type": "function"
    },
    {
      "inputs": [],
      "name": "mint",
      "outputs": [],
      "stateMutability": "nonpayable",
      "type": "function"
    },
    {
      "inputs": [],
      "name": "mintActive",
      "outputs": [
        {
          "internalType": "bool",
          "name": "",
          "type": "bool"
        }
      ],
      "stateMutability": "view",
      "type": "function"
    },
    {
      "inputs": [],
      "name": "owner",
      "outputs": [
        {
          "internalType": "address",
          "name": "",
          "type": "address"
        }
      ],
      "stateMutability": "view",
      "type": "function"
    },
    {
      "inputs": [],
      "name": "renounceOwnership",
      "outputs": [],
      "stateMutability": "nonpayable",
      "type": "function"
    },
    {
      "inputs": [
        {
          "internalType": "address",
          "name": "from",
          "type": "address"
        },
        {
          "internalType": "address",
          "name": "to",
          "type": "address"
        },
        {
          "internalType": "uint256[]",
          "name": "ids",
          "type": "uint256[]"
        },
        {
          "internalType": "uint256[]",
          "name": "amounts",
          "type": "uint256[]"
        },
        {
          "internalType": "bytes",
          "name": "data",
          "type": "bytes"
        }
      ],
      "name": "safeBatchTransferFrom",
      "outputs": [],
      "stateMutability": "nonpayable",
      "type": "function"
    },
    {
      "inputs": [
        {
          "internalType": "address",
          "name": "from",
          "type": "address"
        },
        {
          "internalType": "address",
          "name": "to",
          "type": "address"
        },
        {
          "internalType": "uint256",
          "name": "id",
          "type": "uint256"
        },
        {
          "internalType": "uint256",
          "name": "amount",
          "type": "uint256"
        },
        {
          "internalType": "bytes",
          "name": "data",
          "type": "bytes"
        }
      ],
      "name": "safeTransferFrom",
      "outputs": [],
      "stateMutability": "nonpayable",
      "type": "function"
    },
    {
      "inputs": [
        {
          "internalType": "address",
          "name": "operator",
          "type": "address"
        },
        {
          "internalType": "bool",
          "name": "approved",
          "type": "bool"
        }
      ],
      "name": "setApprovalForAll",
      "outputs": [],
      "stateMutability": "nonpayable",
      "type": "function"
    },
    {
      "inputs": [
        {
          "internalType": "bytes4",
          "name": "interfaceId",
          "type": "bytes4"
        }
      ],
      "name": "supportsInterface",
      "outputs": [
        {
          "internalType": "bool",
          "name": "",
          "type": "bool"
        }
      ],
      "stateMutability": "view",
      "type": "function"
    },
    {
      "inputs": [],
      "name": "toggleMintActive",
      "outputs": [],
      "stateMutability": "nonpayable",
      "type": "function"
    },
    {
      "inputs": [
        {
          "internalType": "address",
          "name": "newOwner",
          "type": "address"
        }
      ],
      "name": "transferOwnership",
      "outputs": [],
      "stateMutability": "nonpayable",
      "type": "function"
    },
    {
      "inputs": [
        {
          "internalType": "uint256",
          "name": "",
          "type": "uint256"
        }
      ],
      "name": "uri",
      "outputs": [
        {
          "internalType": "string",
          "name": "",
          "type": "string"
        }
      ],
      "stateMutability": "view",
      "type": "function"
    },
    {
      "inputs": [
        {
          "internalType": "address",
          "name": "",
          "type": "address"
        }
      ],
      "name": "walletHasClaimed",
      "outputs": [
        {
          "internalType": "bool",
          "name": "",
          "type": "bool"
        }
      ],
      "stateMutability": "view",
      "type": "function"
    }
  ],
  "bytecode": "0x6080604052600480546001600160a01b031916737dd04448c6cd405345d03529bff9749fd89f8f4f1790553480156200003757600080fd5b5060405180606001604052806035815260200162001b43603591396200005d816200006f565b50620000693362000088565b620001bd565b805162000084906002906020840190620000da565b5050565b600380546001600160a01b038381166001600160a01b0319831681179093556040519116919082907f8be0079c531659141344cd1fd0a4f28419497f9722a3daafe3b4186f6b6457e090600090a35050565b828054620000e89062000180565b90600052602060002090601f0160209004810192826200010c576000855562000157565b82601f106200012757805160ff191683800117855562000157565b8280016001018555821562000157579182015b82811115620001575782518255916020019190600101906200013a565b506200016592915062000169565b5090565b5b808211156200016557600081556001016200016a565b600181811c908216806200019557607f821691505b60208210811415620001b757634e487b7160e01b600052602260045260246000fd5b50919050565b61197680620001cd6000396000f3fe608060405234801561001057600080fd5b50600436106100ff5760003560e01c80637da5a5b611610097578063dfcc238a11610066578063dfcc238a14610229578063e985e9c51461023c578063f242432a14610278578063f2fde38b1461028b57600080fd5b80637da5a5b6146101c65780638da5cb5b146101e9578063a22cb4651461020e578063d02c2bf21461022157600080fd5b806325fd90f3116100d357806325fd90f3146101775780632eb2c2d61461018b5780634e1273f41461019e578063715018a6146101be57600080fd5b8062fdd58e1461010457806301ffc9a71461012a5780630e89341c1461014d5780631249c58b1461016d575b600080fd5b610117610112366004611112565b61029e565b6040519081526020015b60405180910390f35b61013d610138366004611152565b610335565b6040519015158152602001610121565b61016061015b366004611176565b610387565b60405161012191906111dc565b61017561041b565b005b60035461013d90600160a01b900460ff1681565b61017561019936600461133b565b6105b7565b6101b16101ac3660046113e5565b61064e565b60405161012191906114eb565b610175610778565b61013d6101d43660046114fe565b60056020526000908152604090205460ff1681565b6003546001600160a01b03165b6040516001600160a01b039091168152602001610121565b61017561021c366004611519565b6107ac565b6101756107bb565b6004546101f6906001600160a01b031681565b61013d61024a366004611555565b6001600160a01b03918216600090815260016020908152604080832093909416825291909152205460ff1690565b610175610286366004611588565b610806565b6101756102993660046114fe565b61088d565b60006001600160a01b03831661030f5760405162461bcd60e51b815260206004820152602b60248201527f455243313135353a2062616c616e636520717565727920666f7220746865207a60448201526a65726f206164647265737360a81b60648201526084015b60405180910390fd5b506000908152602081815260408083206001600160a01b03949094168352929052205490565b60006001600160e01b03198216636cdb3d1360e11b148061036657506001600160e01b031982166303a24d0760e21b145b8061038157506301ffc9a760e01b6001600160e01b03198316145b92915050565b606060028054610396906115ed565b80601f01602080910402602001604051908101604052809291908181526020018280546103c2906115ed565b801561040f5780601f106103e45761010080835404028352916020019161040f565b820191906000526020600020905b8154815290600101906020018083116103f257829003601f168201915b50505050509050919050565b600354600160a01b900460ff166104665760405162461bcd60e51b815260206004820152600f60248201526e4d696e74206e6f742061637469766560881b6044820152606401610306565b3360009081526005602052604090205460ff16156104b85760405162461bcd60e51b815260206004820152600f60248201526e105b1c9958591e4818db185a5b5959608a1b6044820152606401610306565b600480546040516370a0823160e01b815233928101929092526000916001600160a01b03909116906370a082319060240160206040518083038186803b15801561050157600080fd5b505afa158015610515573d6000803e3d6000fd5b505050506040513d601f19601f820116820180604052508101906105399190611628565b1161057d5760405162461bcd60e51b8152602060048201526014602482015273135d5cdd081bdddb8810dc9e5c1d1bc8141a5b1b60621b6044820152606401610306565b336000818152600560209081526040808320805460ff1916600190811790915581519283019091529181526105b59291908190610928565b565b6001600160a01b0385163314806105d357506105d3853361024a565b61063a5760405162461bcd60e51b815260206004820152603260248201527f455243313135353a207472616e736665722063616c6c6572206973206e6f74206044820152711bdddb995c881b9bdc88185c1c1c9bdd995960721b6064820152608401610306565b6106478585858585610a3c565b5050505050565b606081518351146106b35760405162461bcd60e51b815260206004820152602960248201527f455243313135353a206163636f756e747320616e6420696473206c656e677468604482015268040dad2e6dac2e8c6d60bb1b6064820152608401610306565b6000835167ffffffffffffffff8111156106cf576106cf6111ef565b6040519080825280602002602001820160405280156106f8578160200160208202803683370190505b50905060005b84518110156107705761074385828151811061071c5761071c611641565b602002602001015185838151811061073657610736611641565b602002602001015161029e565b82828151811061075557610755611641565b60209081029190910101526107698161166d565b90506106fe565b509392505050565b6003546001600160a01b031633146107a25760405162461bcd60e51b815260040161030690611688565b6105b56000610c19565b6107b7338383610c6b565b5050565b6003546001600160a01b031633146107e55760405162461bcd60e51b815260040161030690611688565b6003805460ff60a01b198116600160a01b9182900460ff1615909102179055565b6001600160a01b0385163314806108225750610822853361024a565b6108805760405162461bcd60e51b815260206004820152602960248201527f455243313135353a2063616c6c6572206973206e6f74206f776e6572206e6f7260448201526808185c1c1c9bdd995960ba1b6064820152608401610306565b6106478585858585610d4c565b6003546001600160a01b031633146108b75760405162461bcd60e51b815260040161030690611688565b6001600160a01b03811661091c5760405162461bcd60e51b815260206004820152602660248201527f4f776e61626c653a206e6577206f776e657220697320746865207a65726f206160448201526564647265737360d01b6064820152608401610306565b61092581610c19565b50565b6001600160a01b0384166109885760405162461bcd60e51b815260206004820152602160248201527f455243313135353a206d696e7420746f20746865207a65726f206164647265736044820152607360f81b6064820152608401610306565b33600061099485610e76565b905060006109a185610e76565b90506000868152602081815260408083206001600160a01b038b168452909152812080548792906109d39084906116bd565b909155505060408051878152602081018790526001600160a01b03808a1692600092918716917fc3d58168c5ae7397731d063d5bbf3d657854427343f4c083240f7aacaa2d0f62910160405180910390a4610a3383600089898989610ec1565b50505050505050565b8151835114610a9e5760405162461bcd60e51b815260206004820152602860248201527f455243313135353a2069647320616e6420616d6f756e7473206c656e677468206044820152670dad2e6dac2e8c6d60c31b6064820152608401610306565b6001600160a01b038416610ac45760405162461bcd60e51b8152600401610306906116d5565b3360005b8451811015610bab576000858281518110610ae557610ae5611641565b602002602001015190506000858381518110610b0357610b03611641565b602090810291909101810151600084815280835260408082206001600160a01b038e168352909352919091205490915081811015610b535760405162461bcd60e51b81526004016103069061171a565b6000838152602081815260408083206001600160a01b038e8116855292528083208585039055908b16825281208054849290610b909084906116bd565b9250508190555050505080610ba49061166d565b9050610ac8565b50846001600160a01b0316866001600160a01b0316826001600160a01b03167f4a39dc06d4c0dbc64b70af90fd698a233a518aa5d07e595d983b8c0526c8f7fb8787604051610bfb929190611764565b60405180910390a4610c1181878787878761102c565b505050505050565b600380546001600160a01b038381166001600160a01b0319831681179093556040519116919082907f8be0079c531659141344cd1fd0a4f28419497f9722a3daafe3b4186f6b6457e090600090a35050565b816001600160a01b0316836001600160a01b03161415610cdf5760405162461bcd60e51b815260206004820152602960248201527f455243313135353a2073657474696e6720617070726f76616c20737461747573604482015268103337b91039b2b63360b91b6064820152608401610306565b6001600160a01b03838116600081815260016020908152604080832094871680845294825291829020805460ff191686151590811790915591519182527f17307eab39ab6107e8899845ad3d59bd9653f200f220920489ca2b5937696c31910160405180910390a3505050565b6001600160a01b038416610d725760405162461bcd60e51b8152600401610306906116d5565b336000610d7e85610e76565b90506000610d8b85610e76565b90506000868152602081815260408083206001600160a01b038c16845290915290205485811015610dce5760405162461bcd60e51b81526004016103069061171a565b6000878152602081815260408083206001600160a01b038d8116855292528083208985039055908a16825281208054889290610e0b9084906116bd565b909155505060408051888152602081018890526001600160a01b03808b16928c821692918816917fc3d58168c5ae7397731d063d5bbf3d657854427343f4c083240f7aacaa2d0f62910160405180910390a4610e6b848a8a8a8a8a610ec1565b505050505050505050565b60408051600180825281830190925260609160009190602080830190803683370190505090508281600081518110610eb057610eb0611641565b602090810291909101015292915050565b6001600160a01b0384163b15610c115760405163f23a6e6160e01b81526001600160a01b0385169063f23a6e6190610f059089908990889088908890600401611792565b602060405180830381600087803b158015610f1f57600080fd5b505af1925050508015610f4f575060408051601f3d908101601f19168201909252610f4c918101906117d7565b60015b610ffc57610f5b6117f4565b806308c379a01415610f955750610f70611810565b80610f7b5750610f97565b8060405162461bcd60e51b815260040161030691906111dc565b505b60405162461bcd60e51b815260206004820152603460248201527f455243313135353a207472616e7366657220746f206e6f6e20455243313135356044820152732932b1b2b4bb32b91034b6b83632b6b2b73a32b960611b6064820152608401610306565b6001600160e01b0319811663f23a6e6160e01b14610a335760405162461bcd60e51b81526004016103069061189a565b6001600160a01b0384163b15610c115760405163bc197c8160e01b81526001600160a01b0385169063bc197c819061107090899089908890889088906004016118e2565b602060405180830381600087803b15801561108a57600080fd5b505af19250505080156110ba575060408051601f3d908101601f191682019092526110b7918101906117d7565b60015b6110c657610f5b6117f4565b6001600160e01b0319811663bc197c8160e01b14610a335760405162461bcd60e51b81526004016103069061189a565b80356001600160a01b038116811461110d57600080fd5b919050565b6000806040838503121561112557600080fd5b61112e836110f6565b946020939093013593505050565b6001600160e01b03198116811461092557600080fd5b60006020828403121561116457600080fd5b813561116f8161113c565b9392505050565b60006020828403121561118857600080fd5b5035919050565b6000815180845260005b818110156111b557602081850181015186830182015201611199565b818111156111c7576000602083870101525b50601f01601f19169290920160200192915050565b60208152600061116f602083018461118f565b634e487b7160e01b600052604160045260246000fd5b601f8201601f1916810167ffffffffffffffff8111828210171561122b5761122b6111ef565b6040525050565b600067ffffffffffffffff82111561124c5761124c6111ef565b5060051b60200190565b600082601f83011261126757600080fd5b8135602061127482611232565b6040516112818282611205565b83815260059390931b85018201928281019150868411156112a157600080fd5b8286015b848110156112bc57803583529183019183016112a5565b509695505050505050565b600082601f8301126112d857600080fd5b813567ffffffffffffffff8111156112f2576112f26111ef565b604051611309601f8301601f191660200182611205565b81815284602083860101111561131e57600080fd5b816020850160208301376000918101602001919091529392505050565b600080600080600060a0868803121561135357600080fd5b61135c866110f6565b945061136a602087016110f6565b9350604086013567ffffffffffffffff8082111561138757600080fd5b61139389838a01611256565b945060608801359150808211156113a957600080fd5b6113b589838a01611256565b935060808801359150808211156113cb57600080fd5b506113d8888289016112c7565b9150509295509295909350565b600080604083850312156113f857600080fd5b823567ffffffffffffffff8082111561141057600080fd5b818501915085601f83011261142457600080fd5b8135602061143182611232565b60405161143e8282611205565b83815260059390931b850182019282810191508984111561145e57600080fd5b948201945b8386101561148357611474866110f6565b82529482019490820190611463565b9650508601359250508082111561149957600080fd5b506114a685828601611256565b9150509250929050565b600081518084526020808501945080840160005b838110156114e0578151875295820195908201906001016114c4565b509495945050505050565b60208152600061116f60208301846114b0565b60006020828403121561151057600080fd5b61116f826110f6565b6000806040838503121561152c57600080fd5b611535836110f6565b91506020830135801515811461154a57600080fd5b809150509250929050565b6000806040838503121561156857600080fd5b611571836110f6565b915061157f602084016110f6565b90509250929050565b600080600080600060a086880312156115a057600080fd5b6115a9866110f6565b94506115b7602087016110f6565b93506040860135925060608601359150608086013567ffffffffffffffff8111156115e157600080fd5b6113d8888289016112c7565b600181811c9082168061160157607f821691505b6020821081141561162257634e487b7160e01b600052602260045260246000fd5b50919050565b60006020828403121561163a57600080fd5b5051919050565b634e487b7160e01b600052603260045260246000fd5b634e487b7160e01b600052601160045260246000fd5b600060001982141561168157611681611657565b5060010190565b6020808252818101527f4f776e61626c653a2063616c6c6572206973206e6f7420746865206f776e6572604082015260600190565b600082198211156116d0576116d0611657565b500190565b60208082526025908201527f455243313135353a207472616e7366657220746f20746865207a65726f206164604082015264647265737360d81b606082015260800190565b6020808252602a908201527f455243313135353a20696e73756666696369656e742062616c616e636520666f60408201526939103a3930b739b332b960b11b606082015260800190565b60408152600061177760408301856114b0565b828103602084015261178981856114b0565b95945050505050565b6001600160a01b03868116825285166020820152604081018490526060810183905260a0608082018190526000906117cc9083018461118f565b979650505050505050565b6000602082840312156117e957600080fd5b815161116f8161113c565b600060033d111561180d5760046000803e5060005160e01c5b90565b600060443d101561181e5790565b6040516003193d81016004833e81513d67ffffffffffffffff816024840111818411171561184e57505050505090565b82850191508151818111156118665750505050505090565b843d87010160208285010111156118805750505050505090565b61188f60208286010187611205565b509095945050505050565b60208082526028908201527f455243313135353a204552433131353552656365697665722072656a656374656040820152676420746f6b656e7360c01b606082015260800190565b6001600160a01b0386811682528516602082015260a06040820181905260009061190e908301866114b0565b828103606084015261192081866114b0565b90508281036080840152611934818561118f565b9897505050505050505056fea2646970667358221220572e4163b29f81baffb9ceec1b747a57a4f3db6c8020f389201f7c8961cc8b9264736f6c63430008080033697066733a2f2f516d524d79676d4e474c484d4b74676d73376a353435537a37577a485752504b70646b454d4538346d4c68785353",
  "linkReferences": {},
  "deployedLinkReferences": {}
}